:100000000C9475010C94A6010C94A6010C94A60105
:100010000C94A6010C94A6010C94A6010C94A601C4
:100020000C94A6010C94A6010C94A6010C94A601B4
:100030000C94A6010C9467110C94A6010C94A601D3
:100040000C94A6010C94FB120C94A6010C94A6012E
:100050000C94A6010C94A6010C94A6010C942712F2
:100060000C94A6010C94F1110C94C7110C94A601E8
:100070000C94A6010C94A6010C94A6010C94A60164
:100080000C94CD120C94A6010C94A6010C94A6011C
:100090000C94A6010C94A6010C94A6010C942913AF
:1000A0000C94A6010C94A6010C949F120C94A6012A
:1000B0000C94A6010C94A6010C94A6010C94711248
:1000C0000C94A6010C94A6010C94A6010C94A60114
:1000D0000C94A6010C94A6010C94A6010C94A60104
:1000E0000C94A6010C94E6020C94B4030C94C70380
:1000F0000C94A9010C94611D0C94C1030C94E203AF
:100100000C94020C0C94BD030C94AE020C94551D7F
:100110000C94641D0C94751D0C945F1D0C94461C6E
:100120000C94F31D0C948C020C94CF030C948A1D38
:100130000C94FD1D0C94EE0C0C94A40A0C94661DFA
:100140000C94B0030C94A8010C94B7030C94CA1E31
:100150000C944D140C94940A0C9450020C941404B6
:100160000C946A070C94D9030C94A8030C94010C0A
:100170000C9445040C94EB0A0C94CB030C94831D53
:100180000C94B70A0C94950A0C945A1D0C94A00276
:100190000C94E3030C94BE0A0C94D5030C94DD0379
:1001A0000C94A2030C94E7030C94911D0C945C1D19
:1001B0000C94721D0C94AC030C94811D0C947D0264
:1001C0000C94330300002100240027002A002D0096
:1001D0003000330001010000040107010A010000A2
:1001E00020002300260029002C002F0032000001EF
:1001F000000003010601090100000A0B02090C0DB1
:100200000E080703040100000000000000000000C9
:1002100000000000000000000000000000000000DE
:10022000000000001211100000000000000000009B
:1002300000000000000000000000000000000102BB
:1002400010202008081020401020408002010201E8
:1002500008040201010204081020408080402010A0
:1002600008040201800402018040201008040201F9
:100270000804020101020408102040800102040861
:100280001020408000002200250028002B002E00B6
:100290003100340002010000050108010B010505D1
:1002A0000505070508080808020202020A0A0808EC
:1002B000040404040101010101010101030303031A
:1002C00003030303040707070C0C0C0C0C0C0C0CA9
:1002D0000202020206060606060606060B0B0B0BBA
:1002E0000B0B0B0B02004D14CA1E11241FBECFEFC7
:1002F000D1E2DEBFCDBF00E00CBF14E0A0E0B2E071
:10030000ECEBF8E400E00BBF02C007900D92AE36B4
:10031000B107D9F727E0AEE6B4E001C01D92AD36D3
:10032000B207E1F711E0C4E7D1E000E006C0219791
:100330000109802FFE010E941622C337D10780E0F9
:100340000807A9F70E9451150C944C240C94000046
:1003500008950895CF92DF92EF92FF92DC01A032D0
:1003600082E0B807D4F5A53BB10514F0A4EBB0E0EA
:1003700040915B0728E830E0241B310947FD3395A5
:10038000220F331F220F331F6901330FEE08FF08BE
:1003900040915C0728E532E0241B310947FD339585
:1003A000220F331F220F331F032E000C440B550B5B
:1003B0002C193D094E095F09B7FF02C0B0E0A0E06B
:1003C0000E942B2124EB30E040E050E00E9401210C
:1003D000C20ED31EE41EF51ED601E0915A07E0338B
:1003E00080F520915B0788E890E0821B910927FD4A
:1003F0009395880F991F880F991FA817B90784F044
:1004000020915C0788E592E0821B910927FD939576
:10041000880F991F880F991FA817B9070CF4CD01F1
:100420000297880F991F4FB7F8942E2F30E0F901EB
:10043000EE0FFF1FE20FF31FEC5DF94F92838183F4
:100440004FBFFF90EF90DF90CF90089596E0899F87
:10045000D0011124A551B94F90967C936E935F976C
:1004600091E091969C939197E0915807F0915907EC
:1004700090915707992339F0309751F0811108C0B6
:10048000809107071994309719F05C968C91FACFF8
:100490000895DC01ED91FC910190F081E02D19941B
:1004A000AF92BF92CF92DF92EF92FF920F931F9382
:1004B000CF93DF936C017B018B01040F151FEB01C0
:1004C0005E01AE18BF08C017D10759F06991D60177
:1004D000ED91FC910190F081E02DC6011995892BD9
:1004E00079F7C501DF91CF911F910F91FF90EF90A8
:1004F000DF90CF90BF90AF900895FC01538D448D55
:10050000252F30E0842F90E0821B930B541710F0BE
:10051000CF96089501970895FC01918D828D9817CB
:1005200061F0A28DAE0FBF2FB11D5D968C91928DA3
:100530009F5F9F73928F90E008958FEF9FEF0895D4
:10054000FC01918D828D981731F0828DE80FF11D9D
:10055000858D90E008958FEF9FEF0895FC01918DB8
:10056000228D892F90E0805C9F4F821B91098F73B1
:10057000992708958BE795E00E94AE0221E0892B30
:1005800009F420E0822F0895FC01A48DA80FB92F53
:10059000B11DA35ABF4F2C91848D90E001968F73AB
:1005A0009927848FA689B7892C93A089B1898C91CA
:1005B000837080648C93938D848D981306C0028819
:1005C000F389E02D80818F7D80830895EF92FF92E3
:1005D0000F931F93CF93DF93EC0181E0888F9B8D66
:1005E0008C8D98131AC0E889F989808185FF15C020
:1005F0009FB7F894EE89FF896083E889F989808143
:100600008370806480839FBF81E090E0DF91CF9111
:100610001F910F91FF90EF900895F62E0B8D10E033
:100620000F5F1F4F0F731127E02E8C8D8E110CC0A2
:100630000FB607FCFACFE889F989808185FFF5CFED
:10064000CE010E94C402F1CFEB8DEC0FFD2FF11D06
:10065000E35AFF4FF0829FB7F8940B8FEA89FB892A
:1006600080818062CFCFCF93DF93EC01888D882388
:10067000B9F0AA89BB89E889F9898C9185FD03C005
:10068000808186FD0DC00FB607FCF7CF8C9185FFEA
:10069000F2CF808185FFEDCFCE010E94C402E9CF69
:1006A000DF91CF91089580E090E0892B29F00E949E
:1006B000BA0281110E94000080E090E0892B49F08D
:1006C00080E090E0892B29F00E94000081110E94B7
:1006D000000080E090E0892B49F080E090E0892BD9
:1006E00029F00E94000081110E94000080E090E04B
:1006F000892B49F080E090E0892B29F00E940000CE
:1007000081110C94000008958150823108F05AC084
:10071000E82FF0E08827E057FC4F8F4F0C9416220B
:10072000B003B403A203A803AC03E203B703BD0301
:10073000C103C703CB03CF03D503D903E203DD0312
:10074000E303E703809180008F7780938000089512
:10075000809180008F7DF9CF80918000877FF5CFD9
:1007600084B58F7784BD089584B58F7DFBCF80914C
:10077000B0008F778093B00008958091B0008F7D96
:10078000F9CF809190008F778093900008958091A9
:1007900090008F7DF9CF80919000877FF5CF809179
:1007A000A0008F778093A00008958091A0008F7D96
:1007B000F9CF8091A000877FF5CF809120018F77BE
:1007C000809320010895809120018F7DF9CF809141
:1007D0002001877FF5CFCF93DF93282F30E0F901F9
:1007E000E850FE4F8491F901E25CFD4FD491F9018C
:1007F000E256FD4FC491CC23A1F081110E948403E5
:10080000EC2FF0E0EE0FFF1FE252FE4FA591B491E6
:10081000EC91ED2381E090E009F480E0DF91CF914D
:10082000089580E090E0FACF862F0C94EB031F939D
:10083000CF93DF93282F30E0F901E850FE4F8491E9
:10084000F901E25CFD4FD491F901E256FD4FC491EC
:10085000CC23A9F0162F81110E948403EC2FF0E025
:10086000EE0FFF1FEC57FD4FA591B4918FB7F89491
:10087000EC91111108C0D095DE23DC938FBFDF917E
:10088000CF911F910895DE2BF8CF862F642F0C9403
:10089000170490912A0289130DC0E4EEF2E0E4916E
:1008A0009FEF90932A02E230E1F038F4EE2381F0DA
:1008B000E13089F060E00C941704E43049F110F164
:1008C000E530C1F7909173009D7F90937300F2CF54
:1008D00010926E00EFCF90916F009D7F90936F000C
:1008E000E9CF909170009D7F9093700091E090937C
:1008F000B0009091B100987F94609093B1001092F5
:10090000B300D8CF909171009D7F90937100D2CFAA
:10091000909172009D7F90937200CCCFCF93DF9324
:1009200090E0FC01E25CFD4F249182569D4FFC015A
:1009300084918823C9F090E0880F991FFC01EC5343
:10094000FE4FA591B491FC01EC57FD4FC591D49198
:1009500061110DC09FB7F8948C91209582238C93E0
:100960008881282328839FBFDF91CF91089562302B
:1009700051F49FB7F8943C91822F809583238C93F8
:10098000E8812E2BEFCF8FB7F894EC912E2B2C9380
:100990008FBFEACF4F925F926F927F928F929F921A
:1009A000AF92BF92CF92DF92EF92FF920F931F937D
:1009B000CF93DF9300D01F921F92CDB7DEB78C018B
:1009C00049835A836B837C8380912A028A30C9F0E1
:1009D0008F3F09F496C00F900F900F900F900F90DB
:1009E000DF91CF911F910F91FF90EF90DF90CF900B
:1009F000BF90AF909F908F907F906F905F904F903F
:100A00000895E4EEF2E084918D8387FDE4CF61E008
:100A10008AE00E948E049D81992321F08D8182308D
:100A200009F08FC14801B12CA12C60E072E18AE786
:100A300090E0A50198010E94012129013A0168E492
:100A400078EE81E090E0A50198010E940121690102
:100A50007A0191E0C91AD108E108F1088D81882353
:100A600009F42CC2823009F033C284E09FEFC9162A
:100A7000D104E104F104F1F1ECF164E274EF80E0FF
:100A800090E0A50198010E94012169017A0181E0AD
:100A9000C81AD108E108F10885E09FEFC916D10412
:100AA000E104F10439F130F162E17AE780E090E0AD
:100AB000A50194010E94012169017A0181E0C81A0F
:100AC000D108E108F10886E09FEFC916D104E104DE
:100AD000F10481F07CF0730162019AE0F594E794EF
:100AE000D794C7949A95D1F781E0C81AD108E10844
:100AF000F10887E09091B100987F892B8093B10035
:100B0000F3C08AE080932A02E4EEF2E094919D83A0
:100B1000892F9F3F09F45FCF923009F469C060F4D8
:100B2000992381F1913009F445C087FD54CF61E0EC
:100B30008AE00E948E0472CF9D81943009F49AC09D
:100B400008F478C0953089F71092200110922101A5
:100B50008091210188608093210180912101816031
:100B600080932101E8EAF2E0E491F0E0EE0FFF1F4C
:100B7000EC57FD4F85919491E8E4F2E0E491E09325
:100B8000530545CF14BC15BC84B5826084BD85B5C2
:100B9000816085BDE8EAF2E0E491F0E0EE0FFF1F2E
:100BA000EC57FD4F85919491E8E4F2E0E491E093F5
:100BB0005A052DCF10928000109281008091810003
:100BC00088608093810080918100816080938100A2
:100BD000E8EAF2E0E491F0E0EE0FFF1FEC57FD4F82
:100BE00085919491E8E4F2E0E491E09359050FCF08
:100BF0001092B0001092B1008091B000826080939A
:100C0000B0008091B10081608093B100E8EAF2E029
:100C1000E491F0E0EE0FFF1FEC57FD4F85919491AA
:100C20009093580580935705E8E4F2E0E491E0934F
:100C30005605EDCE10929000109291008091910097
:100C400088608093910080919100816080939100F1
:100C5000E8EAF2E0E491F0E0EE0FFF1FEC57FD4F01
:100C600085919491E8E4F2E0E491E093550583E006
:100C70008D83CDCE1092A0001092A1008091A10092
:100C800088608093A1008091A10081608093A10081
:100C9000E8EAF2E0E491F0E0EE0FFF1FEC57FD4FC1
:100CA00085919491E8E4F2E0E491E0935405AFCEAD
:100CB00062E17AE780E090E0A50194010E940121C1
:100CC00069017A0191E0C91AD108E108F1088FEFB2
:100CD000C816D104E104F10411F00CF0C6C094E090
:100CE00085B5887F892B85BDD801AA0FBB1F2981B7
:100CF0003A814B815C810E94202128EE33E040E064
:100D000050E00E9433219D81923009F47AC00CF0AA
:100D1000BCC0992309F466C0913009F05CCED09232
:100D20008900C092880020936B0530936C05409336
:100D30006D0550936E0580916F00826080936F0007
:100D40004ACEB12CA12C60E072E18AE790E0A501C7
:100D500098010E94012169017A0191E0C91AD10824
:100D6000E108F10891E0C114D10481E0E806F10442
:100D700084F068E478EE81E090E0A50198010E949B
:100D8000012169017A0191E0C91AD108E108F1084D
:100D900093E08D81813039F480918100887F892BA7
:100DA00080938100A1CF8D81833039F480919100AF
:100DB000887F892B8093910097CF8D81843039F47F
:100DC0008091A100887F892B8093A1008DCF8D8198
:100DD000853009F089CF80912101887F892B80930C
:100DE000210182CFC7BC20936F05309370054093DB
:100DF00071055093720580916E00826080936E0041
:100E0000EACDC092B3002093670530936805409304
:100E1000690550936A05809170008260809370002C
:100E2000DACDD0929900C092980020936305309358
:100E3000640540936505509366058091710082605A
:100E400080937100C8CDD092A900C092A8002093D1
:100E50005F05309360054093610550936205809172
:100E60007200826080937200B6CD730162012AE045
:100E7000F594E794D794C7942A95D1F791E0C91ACD
:100E8000D108E108F10895E02BCF8D818430D9F2AB
:100E900044F2853009F09FCDD0922901C0922801FB
:100EA00020935B0530935C0540935D0550935E0590
:100EB000809173008260809373008DCD9FEFC9167F
:100EC000D104E104F10411F00CF0F2CE93E008CF6C
:100ED00084E0E3CD862F642F0C948E043FB7F89402
:100EE0008091310590913205A0913305B091340580
:100EF00026B5A89B05C02F3F19F00196A11DB11D75
:100F00003FBFBA2FA92F982F8827BC01CD01620FB0
:100F1000711D811D911D42E0660F771F881F991F6B
:100F20004A95D1F708958F929F92AF92BF92CF9238
:100F3000DF92EF92FF924B015C010E946E076B0102
:100F40007C010E946E076C197D098E099F09683E1D
:100F5000734081059105A8F321E0821A9108A10848
:100F6000B10888EEC80E83E0D81EE11CF11C811484
:100F70009104A104B10429F7FF90EF90DF90CF9086
:100F8000BF90AF909F908F9008952FB7F894609185
:100F90002D0570912E0580912F05909130052FBF62
:100FA00008950F931F93CF93DF93C82FD62F86E01A
:100FB000C89FF0011124E551F94F11A2878D90A12E
:100FC00081309105F1F058F082309105F1F10397ED
:100FD00009F440C0DF91CF911F910F9108956623CE
:100FE000C9F361E070E08C2F0E9426020E94C507C1
:100FF0006093430770934407809345079093460797
:10100000E9CF0E94C5070091430710914407209142
:10101000450730914607AB01BC01401B510B620BE9
:10102000730B8091550790915607B0E0A0E08417AC
:101030009507A607B70748F462E070E08C2FDF91B0
:10104000CF911F910F910C94260263E070E0D111B3
:10105000C1CFF4CF70E060E0F1CF6F927F928F92BA
:101060009F92AF92BF92CF92DF92EF92FF920F9337
:101070001F93CF93DF9381E0809357070E94C507AA
:1010800000914707109148072091490730914A077E
:10109000AB01BC01401B510B620B730B80915307DA
:1010A00090915407B0E0A0E084179507A607B70712
:1010B00008F014C1C0E080915107C81760F4E091B6
:1010C0004D07F0914E07EC0FF11D62E080810E9408
:1010D0008E04CF5FF0CF712C812C912C540183941E
:1010E00080915207781608F05FC0072D10E0E0915C
:1010F0004F07F0915007E00FF11F61E080810E94DF
:101100008E04E0914F07F0915007E00FF11F60E06F
:1011100080810E941704D501C401072C04C0880FE8
:10112000991FAA1FBB1F0A94D2F76C017C01E0949F
:10113000F094612C809151076816F8F4C62DD0E028
:10114000E0914D07F0914E07EC0FFD1F80810E944A
:10115000EB032496CC0FDD1FC551D94F892B41F4E9
:10116000888199818C299D29998388836394E2CF12
:10117000888199818E219F21F7CFE0914F07F091CF
:101180005007E00FF11F61E080810E9417048091F9
:101190004F0790915007080F191F60E0F8018081F8
:1011A0000E948E0473949CCFCBEED6E0FE018FEFAD
:1011B0009FEF278D30A1232B21F4148E968F858FDE
:1011C00011A2369627E0E732F20799F7F12C96E064
:1011D000D92E80915107F81608F050C0E12C0F2D40
:1011E00010E0000F111F0D50194F20915207E21609
:1011F00008F042C0F801608171810E2C02C0769522
:1012000067950A94E2F7F29E900111242E0D311D8C
:10121000EBEEF6E080E0458D568D2417350709F496
:1012200061C08F5F36968A30B1F760FF23C0EBEE66
:10123000F6E090E080E0448D411117C0E0914B074B
:10124000F0914C07E20FF31F4081D89EF001D99E28
:10125000F00D1124E551F94F448F368F258F10A2E0
:10126000178E61E00E94D10705C0019636968A303C
:10127000910509F7E394B9CFF394ABCF10E089A1BE
:101280008111182F2696F7E0C732DF07C1F70E94B9
:10129000C507609347077093480780934907909369
:1012A0004A071123D9F080910C078823B9F0809167
:1012B0000A0790910B07019789F480910707DF9146
:1012C000CF911F910F91FF90EF90DF90CF90BF9043
:1012D000AF909F908F907F906F90089510925707D6
:1012E00080E0EDCF6170BECFAF92BF92CF92DF9220
:1012F000EF92FF920F931F93CF93DF936B017A01CD
:10130000EC01C85DDA4F28813CE0389F8001399FAD
:10131000100D1124A090B406B12C27FF1FC0FB01B3
:101320001182108288818F5F888388819801280FBD
:10133000311D87FD3A95F6012A153B051CF488817D
:101340008C30C4F180819181049680349C4908F4EA
:1013500073C0F60180819181049670C088819801E4
:10136000280F311D87FD3A952A153B05DCF688814B
:10137000A801480F511D87FD5A95FA01EE0FFF1F76
:10138000E40FF51FEC5DF94F808186FFCBCF88819C
:10139000F801E80FF11D87FDFA95CF01EE0FFF1F51
:1013A000E80FF91FEC5DF94F808160E08F730E94B8
:1013B0001704B8CF808191812881A801420F511D67
:1013C00027FD5A959A01FA01EE0FFF1FE20FF31F56
:1013D000EC5DF94F21813281820F931FF7019183D8
:1013E000808388819801280F311D87FD3A95F90186
:1013F000EE0FFF1FE20FF31FEC5DF94F808186FFB8
:1014000022C08881080F111D87FD1A95F801EE0F83
:10141000FF1FE00FF11FEC5DF94F808161E08F73DA
:10142000DF91CF911F910F91FF90EF90DF90CF90C0
:10143000BF90AF900C94170480E49CE9F70191836E
:1014400080838FEF8883DF91CF911F910F91FF9061
:10145000EF90DF90CF90BF90AF9008952091DE0481
:10146000260F3327331F21323105ECF4209102057A
:10147000FC0190E080E0243069F082E00895A091C2
:10148000DE042191AC0142545B4FA40FB52FB11D76
:101490002C930196861798F38091DE04680F609371
:1014A000DE0480E0089581E008951092020581E055
:1014B000809304051092030561E084E10E94170403
:1014C00061E085E10E941704E9EBF0E080818E7F06
:1014D000808380818D7F808388E48093B80085E459
:1014E0008093BC000895CF93DF9391E09093BD0467
:1014F0008823B9F0C091B800D091BA008091BC00A7
:101500008A7B8093BC0060E084E10E94170460E065
:1015100085E10E9417040E94550AD093BA00C09337
:10152000B800DF91CF9108950895E0917A058091F8
:101530007905E81730F4F0E0E856FB4F808190E041
:1015400008958FEF9FEF089590917A058091790526
:101550002FEF3FEF981748F4E92FF0E0E856FB4FE4
:10156000208130E09F5F90937A05C90108958091B2
:10157000790590917A05891B990B0895CF92DF9296
:10158000EF92FF920F931F93CF93DF937C01CB01D8
:101590008A0120919704222389F0EB016B01C40E8C
:1015A000D51ECC15DD0569F06991D701ED91FC914F
:1015B0000190F081E02DC7011995F3CF642F0E94AF
:1015C0002E0AC801DF91CF911F910F91FF90EF90EC
:1015D000DF90CF900895CF93DF931F92CDB7DEB702
:1015E0006983209197042223F9F020917705203216
:1015F00058F021E030E0FC013383228390E080E06A
:101600000F90DF91CF91089580917805E82FF0E059
:10161000E958FB4F998190838F5F80937805809381
:10162000770581E090E0ECCF61E0CE0101960E9469
:101630002E0AF7CFCF92DF92EF92FF920F931F9374
:10164000CF93DF93FC01C48121E020939704C093E2
:101650006E0410927805109277058385682B88E1D7
:1016600096E00E94EB0AD0917705D13208F092C043
:101670000E946E076B017C0180910205811165C09B
:1016800082E08093020581E0809304058FEF8093D0
:10169000010510922605D0932505A7E7B4E0E5E003
:1016A000F5E080E0D81385C01092270580912705CA
:1016B000CC0FC82BC093270580910305813009F01A
:1016C0007CC0109203050E946E076B017C01809123
:1016D00027058093BB008091B9049091BA04A09132
:1016E000BB04B091BC04892B8A2B8B2B99F00E94F0
:1016F0006E070091B9041091BA042091BB04309197
:10170000BC046C197D098E099F0906171707280765
:101710003907E0F18091BC0083FDD9CF85EC80933F
:10172000BC000E946E076B017C0180910205823033
:1017300009F445C0809101058F3F61F18091010559
:10174000803241F18091010525C08091B9049091CA
:10175000BA04A091BB04B091BC04892B8A2B8B2BBB
:1017600009F48ACF0E946E070091B9041091BA045F
:101770002091BB043091BC046C197D098E099F092E
:10178000061717072807390708F076CF8091B804A5
:101790000E94730A109278051092770510929704B0
:1017A000DF91CF911F910F91FF90EF90DF90CF903D
:1017B00008959D9191938F5F75CF85EEB0CF809105
:1017C000B9049091BA04A091BB04B091BC04892BD8
:1017D0008A2B8B2B09F4A9CF0E946E070091B904C4
:1017E0001091BA042091BB043091BC046C197D099E
:1017F0008E099F09061717072807390708F095CFA4
:10180000C5CF089590E080E008950F931F93CF9384
:101810008C01C62F0E941A0B6C2F6460C8010E94B5
:101820001A0B6C2F6B7FC8010E941A0B83EC90E09F
:101830000197F1F7CF911F910F9108950F931F9387
:10184000CF93DF938C01D62FC42F607F642B0E942F
:10185000050C80E1D89FB00111246C2BC801DF91E9
:10186000CF911F910F910C94050C40E061E08DE544
:1018700097E00E941E0C8BE39FE10197F1F708951A
:10188000CF93DF9300D000D01F921F92CDB7DEB769
:1018900098E0EDE4F2E0DE01119601900D929A9548
:1018A000E1F790916507961708F46FEF262F30E067
:1018B000220F331F41E050E04C0F5D1F240F351FF6
:1018C000F9016081680F606840E08DE597E0289637
:1018D0000FB6F894DEBF0FBECDBFDF91CF910C9451
:1018E0001E0CCF93DF9310927A0510927905109217
:1018F0007805109277050E94550A88EA91E0909346
:1019000076058093750589EA91E09093740580933C
:1019100073051092620780916707823018F098E093
:10192000909362078093650762E370E080E090E047
:101930000E949307609168078DE597E00E941A0B5B
:1019400068EE73E080E090E00E94930760E38DE52D
:1019500097E00E94050CCBE4D6E4CE010197F1F7A5
:1019600060E38DE597E00E94050C2197F1F760E3B5
:101970008DE597E00E94050C83E592E00197F1F771
:1019800060E28DE597E00E94050C6091620760625D
:1019900040E08DE597E00E941E0C84E08093630791
:1019A00040E06CE08DE597E00E941E0C0E94350C33
:1019B00082E08093640740E066E08DE597E00E9456
:1019C0001E0C40E062E08DE597E00E941E0C8BE368
:1019D0009FE10197F1F7DF91CF91089541E00E94D7
:1019E0001E0C81E090E008950F931F93CF93DF9337
:1019F0008B0198E0899FB0011124606440E08DE57F
:101A000097E00E941E0CE801085F1F4F69918DE569
:101A100097E00E94EE0CC017D107C1F7DF91CF917C
:101A20001F910F910895CF93DF93EC0190E080E038
:101A30000E94EB20888381E090E00E94EB20898364
:101A4000CE01DF91CF910895FB0101900020E9F7CD
:101A50003197AF01461B570BDC01ED91FC910280E1
:101A6000F381E02D19948F929F92AF92BF92EF92E3
:101A7000FF920F931F93CF93DF93CDB7DEB7A1975C
:101A80000FB6F894DEBF0FBECDBF7C01FA01CB01CB
:101A900019A2223008F42AE08E010F5D1F4F822E1A
:101AA000912CB12CA12CBF01A50194010E943321DE
:101AB000F901CA016A300CF5605DD8016E938D01A1
:101AC000232B242B252B79F790E080E0109721F031
:101AD000BD01C7010E94240DA1960FB6F894DEBF88
:101AE0000FBECDBFDF91CF911F910F91FF90EF906F
:101AF000BF90AF909F908F900895695CDECF0C945B
:101B0000240DCF93DF9360E082E20E9417040E94CD
:101B1000350C60E080E00E94400C65E08DE597E0C8
:101B20000E94EE0C60E081E00E94400C67EB72E0E6
:101B30008DE597E00E947F0D61E082E00E94400CFD
:101B400062E08DE597E00E94EE0C61E083E00E9488
:101B5000400C64E08DE597E00E94EE0C61E084E0CB
:101B60000E94400C67EC72E08DE597E00E947F0DCB
:101B700061E08CE00E94400C64E08DE597E00E94FB
:101B8000EE0CC4EBD0E0CE010E94AA016FE070E041
:101B900080E090E00E9493072197A8F761E083E23C
:101BA0000E94170448EB5BE060E070E086E292E0A0
:101BB0000E94CA0468EB7BE080E090E00E949307FB
:101BC00060E083E2DF91CF910C941704BF92CF9233
:101BD000DF92EF92FF920F931F93CF93DF9383E3F4
:101BE0000E94EB03EC01909376048093750485E3E7
:101BF0000E94EB0390937404809373042091490531
:101C000030914A05232B09F016C1219719F4892B2D
:101C100009F4FBC060E080E00E94400C64E173E0E6
:101C20008DE597E00E947F0D61E080E00E94400C0E
:101C300065E273E08DE597E0DF91CF911F910F9101
:101C4000FF90EF90DF90CF90BF900C947F0DBB245E
:101C5000B39460E080E00E94400C60ED72E08DE59E
:101C600097E00E947F0D61E080E00E94400C61EEF1
:101C700072E08DE597E00E947F0D05E512E0D0E06F
:101C8000C0E0F80180810E5F1F4FE0917104F09178
:101C90007204EE0FFF1FEE0FFF1FEC0FFD1FEE0F84
:101CA000FF1FE35AFD4F2081318161E02130310572
:101CB00009F060E00E9417042196C430D10509F7AD
:101CC00061E087E20E9417040E94C5070091350574
:101CD000109136052091370530913805601B710B46
:101CE000820B930B6134710581059105C8F08091D9
:101CF0006F0490917004892B09F08FC061E085E238
:101D00000E941704F0927004E0926F040E94C507CD
:101D100060933505709336058093370590933805A9
:101D20000E94C5070091390510913A0520913B05A5
:101D300030913C05601B710B820B930B623871056F
:101D400081059105A8F0809171049091720401972A
:101D500008F46CC090937204809371040E94C507CC
:101D60006093390570933A0580933B0590933C0549
:101D700083E30E94EB038C019093760480937504B7
:101D800085E30E94EB03EC01909374048093730449
:101D9000B11008C048EB5BE060E070E084E690E0E2
:101DA0000E94CA04012B09F052CF219709F04FCFAE
:101DB0000E94350C60E080E00E94400C62EF72E00F
:101DC0008DE597E00E947F0D61E080E00E94400C6D
:101DD00063E073E08DE597E00E947F0D48EE53E0ED
:101DE00060E070E084E690E00E94CA046CED75E06B
:101DF00080E090E0DF91CF911F910F91FF90EF90E5
:101E0000DF90CF90BF900C949307B12CEE24E39415
:101E1000F12C73E0C72ED12C1CCF60E085E20E942C
:101E200017041092700410926F0470CFD092720455
:101E3000C092710493CFCD2B09F0E7C0019709F050
:101E4000E4C0D12CEE24E394F12C02C0DD24D39421
:101E500060E080E00E94400C60ED72E08DE597E06C
:101E60000E947F0D61E080E00E94400C66E373E019
:101E70008DE597E00E947F0D05E512E0D0E0C0E01F
:101E8000F80180810E5F1F4FE0917104F0917204A0
:101E9000EE0FFF1FEE0FFF1FEC0FFD1FEE0FFF1FDA
:101EA000E35AFD4F2081318161E02130310509F095
:101EB00060E00E9417042196C430D10509F760E064
:101EC00087E20E9417040E94C50700913505109112
:101ED00036052091370530913805601B710B820B58
:101EE000930B6134710581059105C8F080916F04F1
:101EF00090917004892B09F07AC061E085E20E941C
:101F00001704F0927004E0926F040E94C50760937A
:101F100035057093360580933705909338050E94F8
:101F2000C5070091390510913A0520913B05309184
:101F30003C05601B710B820B930B623871058105A8
:101F40009105B8F0809171049091720401968430EB
:101F5000910509F455C090937204809371040E9416
:101F6000C5076093390570933A0580933B059093BC
:101F70003C0583E30E94EB038C01909376048093ED
:101F8000750485E30E94EB03EC0190937404809345
:101F90007304D11008C048EB5BE060E070E080E2C1
:101FA00093E00E94CA040130110509F04FCFCD2BF8
:101FB00009F04CCF0E94350C60E080E00E94400C9C
:101FC00062EF72E08DE597E00E947F0D61E080E0B6
:101FD0000E94400C66E473E08DE597E00E947F0D5F
:101FE00048EE53E060E070E080E293E0FDCE60E018
:101FF00085E20E9417041092700410926F0485CF3E
:102000001092720410927104AACF60E080E00E94E6
:10201000400C64E173E08DE597E00E947F0D61E084
:1020200080E00E94400C67E573E004CEFC0124814F
:102030003581FB014481558124173507E1F4FC010A
:1020400080819181FB01608171810097D1F06115E0
:102050007105A1F4232BC1F0FC01808190E008C040
:10206000232B91F0FB01808190E09195819591095E
:1020700021E0892B09F020E0822F08950E942D2471
:10208000F7CF6115710561F721E0F6CF0F931F932C
:10209000CF93DF93EC0188819981009759F02A81D1
:1020A0003B812617370730F081E0DF91CF911F91F8
:1020B0000F9108958B016F5F7F4F0E94432300971C
:1020C00059F0998388831B830A832C813D81232BBC
:1020D00059F7FC011082E8CF80E0E7CFEF92FF9242
:1020E0000F931F93CF93DF936115710541F480E047
:1020F000DF91CF911F910F91FF90EF9008954115BF
:102100005105B1F07B01EC010C811D81040F151FFD
:10211000B8010E944610882351F3288139818C81AF
:102120009D81B701820F931F0E9436241D830C836B
:1021300081E0DECFCF93DF93EC0188819981009716
:1021400011F00E94BA22198218821D821C821B8201
:102150001A82DF91CF9108950F931F93CF93DF934E
:102160001F921F92CDB7DEB78C0169831A8241E0BE
:1021700050E0BE016F5F7F4F0E946E10811103C05F
:10218000C8010E949A10C8010F900F90DF91CF9163
:102190001F910F910895EF92FF920F931F93CF938A
:1021A000DF93EC017B018A01BA010E944610811184
:1021B0000BC0CE010E949A10CE01DF91CF911F91EA
:1021C0000F91FF90EF9008951D830C83B7018881D4
:1021D00099810E943624F0CFFB0101900020E9F79D
:1021E0003197AF01461B570B0C94CB10CF93DF9365
:1021F000EC01FB018617970749F060817181611539
:10220000710541F0448155810E94CB10CE01DF91D0
:10221000CF9108950E949A10F9CFFC01118210828B
:1022200013821282158214820C94F610FC01118222
:1022300010821382128215821482FB010190002009
:10224000E9F73197AF01461B570B0C94CB10FC01FB
:1022500080819181009711F00C94BA22089585ED48
:102260008093BC008091B9049091BA04A091BB0402
:10227000B091BC040796A11DB11D23E0B695A795AA
:10228000979587952A95D1F72091BC0024FD03C02E
:102290001092020508954091B9045091BA046091DA
:1022A000BB047091BC04452B462B472B69F3009768
:1022B000A105B10541F025E32A95F1F7000001974A
:1022C000A109B109E1CF8091B8040C94730A1F925F
:1022D0000F920FB60F9211240BB60F922F933F93CC
:1022E0004F935F936F937F938F939F93AF93BF931E
:1022F000EF93FF938091670590916805A091690520
:10230000B0916A05892B8A2B8B2BE1F190915605B0
:10231000E0915705F091580580818927808380914D
:10232000670590916805A0916905B0916A05181636
:1023300019061A061B069CF48091670590916805A2
:10234000A0916905B0916A050197A109B10980932F
:10235000670590936805A0936905B0936A05FF919E
:10236000EF91BF91AF919F918F917F916F915F910D
:102370004F913F912F910F900BBE0F900FBE0F907A
:102380001F90189580912A020E944904E8CF1F925D
:102390000F920FB60F9211240BB60F922F933F930B
:1023A0004F935F936F937F938F939F93AF93BF935D
:1023B000EF93FF938BE795E00E94C402FF91EF91AA
:1023C000BF91AF919F918F917F916F915F914F914D
:1023D0003F912F910F900BBE0F900FBE0F901F904B
:1023E00018951F920F920FB60F9211240BB60F92F1
:1023F0002F938F939F93EF93FF93E0918B05F09131
:102400008C058081E0919105F091920582FD1DC0BF
:102410009081809194058F5F8F732091950582172D
:1024200041F0E0919405F0E0E558FA4F958F8093E4
:102430009405FF91EF919F918F912F910F900BBE7B
:102440000F900FBE0F901F9018958081F2CF1F92B2
:102450000F920FB60F9211242F933F938F939F9358
:10246000AF93BF9380912D0590912E05A0912F05DC
:10247000B091300530912C0523E0230F2D3758F50E
:102480000196A11DB11D20932C0580932D059093DD
:102490002E05A0932F05B0933005809131059091C2
:1024A0003205A0913305B09134050196A11DB11DEF
:1024B0008093310590933205A0933305B093340592
:1024C000BF91AF919F918F913F912F910F900FBE30
:1024D0000F901F90189526E8230F0296A11DB11D9D
:1024E000D2CF1F920F920FB60F9211240BB60F92FC
:1024F0002F933F934F935F936F937F938F939F930C
:10250000AF93BF93EF93FF9348E251E064E271E031
:1025100090E080E00E947409FF91EF91BF91AF912C
:102520009F918F917F916F915F914F913F912F91EB
:102530000F900BBE0F900FBE0F901F9018951F921B
:102540000F920FB60F9211240BB60F922F933F9359
:102550004F935F936F937F938F939F93AF93BF93AB
:10256000EF93FF9348EA50E064EA70E083E090E084
:102570000E947409FF91EF91BF91AF919F918F914C
:102580007F916F915F914F913F912F910F900BBE73
:102590000F900FBE0F901F9018951F920F920FB6BD
:1025A0000F9211240BB60F922F933F934F935F938B
:1025B0006F937F938F939F93AF93BF93EF93FF930B
:1025C00048E950E064E970E082E090E00E9474091C
:1025D000FF91EF91BF91AF919F918F917F916F91FB
:1025E0005F914F913F912F910F900BBE0F900FBEB7
:1025F0000F901F9018951F920F920FB60F921124F3
:102600000BB60F922F933F934F935F936F937F93EC
:102610008F939F93AF93BF93EF93FF9348E850E05E
:1026200064E870E081E090E00E947409FF91EF910E
:10263000BF91AF919F918F917F916F915F914F91DA
:102640003F912F910F900BBE0F900FBE0F901F90D8
:1026500018951F920F920FB60F9211240BB60F927E
:102660002F933F934F935F936F937F938F939F939A
:10267000AF93BF93EF93FF938091B900887F80362B
:1026800009F44DC008F040C0883209F4A9C028F50B
:10269000803109F49DC0C8F4882309F4FBC0883058
:1026A00009F496C0FF91EF91BF91AF919F918F91E7
:1026B0007F916F915F914F913F912F910F900BBE42
:1026C0000F900FBE0F901F901895883109F488C0A5
:1026D000803241F78093010514C0803409F49DC015
:1026E00040F48033B9F38833E9F68093010585EC33
:1026F000B0C0803509F485C0883509F496C08834A7
:1027000089F60E942F11CECF883909F48CC038F594
:10271000883729F050F4883611F0803719F683E0B5
:10272000809302051092000557C0883809F47BC0D9
:10273000803919F0803809F0B5CF809100058032DA
:1027400008F071C0E091000581E08E0F80930005D4
:102750008091BB00F0E0E052FB4F80833DC0803BA6
:1027600039F0E0F4803A09F479C0883A09F09ACF58
:1027700084E0809302051092DF041092DE04E09161
:102780007505F091760519958091DE0481110FC0D1
:1027900081E08093DE041092BE0409C0803C09F4FD
:1027A000A6CF883C09F4A3CF883B09F07BCFE0910A
:1027B000DF0481E08E0F8093DF04F0E0E254FB4FF2
:1027C00080818093BB009091DF048091DE0429C05A
:1027D000809127058093BB0085EC8093BC0062CF7D
:1027E0009091260580912505981758F5E0912605CA
:1027F00081E08E0F80932605F0E0EB5FFA4F808139
:10280000E9CFE091260581E08E0F80932605809127
:10281000BB00F0E0EB5FFA4F80839091260580913A
:1028200025059817C8F285E8D8CFE091260581E004
:102830008E0F809326058091BB00F0E0EB5FFA4F8E
:1028400080838091040581115CCF81E08093030532
:1028500084EA8093BC001092020524CF85EC80931B
:10286000BC001092020580910005803230F4E091A6
:102870000005F0E0E052FB4F10826091000570E02F
:10288000E0917305F091740580EE94E01995109233
:10289000000508CF1092010534CF10927E051092EA
:1028A0007D0588EE93E0A0E0B0E080937F059093F3
:1028B0008005A0938105B093820521E832E0309332
:1028C0007C0520937B0525EC30E030938805209330
:1028D000870524EC30E030938A052093890520ECAD
:1028E00030E030938C0520938B0521EC30E0309361
:1028F0008E0520938D0522EC30E0309390052093D7
:102900008F0526EC30E030939205209391051092CC
:1029100094051092950510929605109297051092C5
:102920001B0610921A0680931C0690931D06A09316
:102930001E06B0931F0683E992E0909319068093D8
:1029400018061092600710925F078FEA92E090934A
:102950005E0780935D0780E28093610780E180934A
:10296000660782E080936707109268078091B4063B
:10297000803308F092C091E0980F9093B406809352
:102980005A0790E0FC01EE0FFF1FE80FF91FEC5D06
:10299000F94F88EB9BE0928381831092ED061092B1
:1029A000F1061092F0061092F20685EA92E09093FA
:1029B000EC068093EB06E7E0F7E0108214821382C6
:1029C0001582369687E0E334F807B9F78FE292E094
:1029D00090934E0780934D078BE292E090935007BF
:1029E00080934F0784E0809351078093520783E3DD
:1029F00092E090934C0780934B078AE090E090938D
:102A000054078093530784EF91E090935607809387
:102A100055071092590710925807109247071092C5
:102A200048071092490710924A071092570766E527
:102A300073E085EE96E00E94161166E573E08FED77
:102A400096E00E94161166E573E089ED96E00E941B
:102A5000161166E573E083ED96E00E94161166E5B7
:102A600073E08DEC96E00E94161166E573E087EC4A
:102A700096E00E94161166E573E081EC96E00E94F4
:102A8000161166E573E08BEB96E00E94161166E581
:102A900073E085EB96E00C9416118FEF80935A0744
:102AA0007CCFCF93DF93CDB7DEB7CA54D1090FB631
:102AB000F894DEBF0FBECDBF789484B5826084BD2C
:102AC00084B5816084BD85B5826085BD85B5816032
:102AD00085BD80916E00816080936E0010928100B0
:102AE000809181008260809381008091810081606B
:102AF000809381008091800081608093800080912C
:102B0000B10084608093B1008091B00081608093B7
:102B1000B00080919100826080939100809191003B
:102B200081608093910080919000816080939000FB
:102B30008091A10082608093A1008091A1008160BA
:102B40008093A1008091A00081608093A00080917B
:102B50002101826080932101809121018160809315
:102B600021018091200181608093200180917A0071
:102B7000846080937A0080917A00826080937A00EA
:102B800080917A00816080937A0080917A008068D9
:102B900080937A001092C10061E087E10E948E0468
:102BA00061E089E10E948E0461E08BE10E948E0465
:102BB00061E08DE10E948E0461E085E20E948E0456
:102BC00061E087E20E948E0461E082E20E948E044E
:102BD00061E083E20E948E0460E083E30E948E0441
:102BE00060E085E30E948E0461E08EE00E948E0426
:102BF00061E08FE00E948E0461E080E10E948E041B
:102C000061E081E10E948E0460E086E30E948E0410
:102C100060E08DE20E948E0460E08FE20E948E04EC
:102C200060E08BE20E948E040E94710C88E0809329
:102C3000680760E08DE597E00E941A0B60E272E0A1
:102C400082E00E94F40C68E172E083E00E94F40CE0
:102C500060E172E084E00E94F40C68E072E085E0DC
:102C60000E94F40C80915A07803308F052C061E052
:102C700081E20E948E0480915A07282F30E0F901EA
:102C8000EE0FFF1FE20FF31FEC5DF94F9081907C78
:102C90009162908310925B0710925C072CE0622F88
:102CA0000E940A22829FB001112430E020E0AB0193
:102CB000420F531FFA01EE0FFF1FE40FF51FEC5DEB
:102CC000F94F908196FD17C02F5F3F4F2C30310593
:102CD00071F7813009F0ABC11092800082E08093DF
:102CE00081001092850010928400B19A80916F004B
:102CF000826080936F00E0915A078E2F90E0FC0174
:102D0000EE0FFF1FE80FF91FEC5DF94F8081806423
:102D1000808390E080E00E94AA010E94C507609332
:102D2000390570933A0580933B0590933C050E94CA
:102D3000C5076093350570933605809337059093EA
:102D400038050E94C50781E080932902E0918B0538
:102D5000F0918C0582E08083E0918705F0918805F1
:102D60001082E0918905F0918A058FEC80831092A2
:102D70009305E0918F05F091900586E08083E091C6
:102D80008D05F0918E05808180618083E0918D05B5
:102D9000F0918E05808188608083E0918D05F091AF
:102DA0008E05808180688083E0918D05F0918E058D
:102DB00080818F7D808361E08CE00E948E0461E0E1
:102DC0008BE00E948E040E94710C88E0809368075B
:102DD00060E08DE597E00E941A0B60E072E081E010
:102DE0000E94F40C8E010F5F1F4FC8010E94130D4B
:102DF00069817A81605E7F4F072E000C880B990BEA
:102E0000611571058105910511F00E94891FCE01A0
:102E1000459627969FAF8EAF2797FE01B9962996C4
:102E2000FFAFEEAF29971F01E1E0F0E0E01BF10BEF
:102E30002B96FFAFEEAF2B9780912902811118C01E
:102E40000E94C507C0904F05D0905005E0905105F5
:102E5000F09052056C197D098E099F096037774102
:102E60008105910528F00E94810D81E0809329025F
:102E7000809128028823B9F160E081E00E94400C33
:102E800061E08DE597E00E94EE0C60E083E00E9437
:102E9000400C68E673E08DE597E00E947F0D60E0EE
:102EA0008EE00E94400C61E08DE597E00E94EE0C00
:102EB00068E873E180E090E00E9493071092280296
:102EC00081E0809348050E94350C60E081E00E941B
:102ED000400C63E773E08DE597E00E947F0D61E0B1
:102EE00086E00E94400C80914805882329F10E94C9
:102EF0002D08F82E882301F125E48213DAC0809191
:102F0000E9069091EA06892B09F4BDC062E873E0F6
:102F10008091E5069091E6060E942D24892B09F008
:102F2000B2C066E573E085EE96E00E94EC10109268
:102F3000480581E08093470580914605882309F480
:102F4000ECC00E942D08F82E882309F4E6C085E421
:102F5000F812A2C4109246056FED76E0CE01C3963A
:102F60000E940D1165EE76E0CE01CD960E940D1106
:102F700025961FAE1EAE2597CE018D5B9F4F0E94FA
:102F8000130D2796AEACBFAC2797B194A194B108AE
:102F9000D12CC12C25968EAD9FAD2597C816D9068C
:102FA0000CF09EC0FE0175967F014501F2E08F0E88
:102FB000911CC4018E0D9F1D0E94EB20F70181938F
:102FC0007F0129968EAD9FAD29978E179F0789F7B0
:102FD000BE016B5E7F4FC8010E941611BE01635C8B
:102FE0007F4FC8010E941610F12C8823A1F0BE016A
:102FF000615E7F4FC1010E941611BE016D5C7F4F63
:10300000C1010E941610FF24F394811101C0F12C1C
:10301000C1010E942711C8010E94271194E1A90E45
:10302000B11CF1105EC0EFEFCE1ADE0AB3CF8230D2
:1030300061F410929000809391001092950010928C
:10304000940088BB8093710056CE833069F410924F
:10305000A00082E08093A1001092A5001092A4002D
:1030600089BB8093720047CE811145CE109220011A
:1030700082E08093210110922501109224018ABBE5
:103080008093730038CE109248050E94350C60E0A2
:1030900082E00E94400C67E873E08DE597E00E94B3
:1030A0007F0D61E084E00E94400C81E08093460542
:1030B00043CF682F8DE597E00E94490265EE76E0E8
:1030C000C8010E940D116F2DC8010E94AC10BC01F7
:1030D00085EE96E00E94F610C8010E9427112CCFC1
:1030E000F12CCE01CD960E942711CE01C3960E94ED
:1030F000271181E0FF2009F4CCC38093450566E5E4
:1031000073E085EE96E00E94EC1066E573E08FEDCB
:1031100096E00E94EC100E94350C809144058823B3
:1031200009F453C080914205909143050196909314
:1031300043058093420560E085E00E94400C63E90E
:1031400073E08DE597E00E947F0D60E08FE00E94C4
:10315000400CC0904205D09043050D2C000CEE08A9
:10316000FF082AE0B701A601F7FE0DC06DE28DE56C
:1031700097E00E94490244275527BA014C195D097E
:103180006E097F092AE08DE597E00E94330D61E02A
:1031900080E00E94400C69E973E08DE597E00E94B1
:1031A0007F0D60ED77E080E090E00E9493078091D2
:1031B000420590914305049709F085C30E94350CA0
:1031C00081E0809341051092440580914105882358
:1031D00009F44BC060E081E00E94400C69EA73E0B2
:1031E0008DE597E00E947F0D61E080E00E94400C39
:1031F00068EB73E08DE597E00E947F0D61E08BE066
:103200000E94170446E0E42EF12C40E550E060E017
:1032100070E088EC90E00E94CA0464EF71E080E006
:1032200090E00E9493078AE00E94490464EF71E0F5
:1032300080E090E00E949307F1E0EF1AF10829F78F
:103240000E94350C60E081E00E94400C69EC73E064
:103250008DE597E00E947F0D61E086E00E94400CC2
:103260001092410581E080934005809140058823BC
:10327000E9F10E942D08F82E8823C1F125E482137C
:103280003EC38091D1069091D206892B09F42FC3B9
:1032900068ED73E08091CD069091CE060E942D24BA
:1032A000892B09F024C30E94350C60E081E00E9464
:1032B000400C63E773E08DE597E00E947F0D61E0CD
:1032C00086E00E94400C81E08093480510924305FF
:1032D000109242051092400560E08BE00E941704B6
:1032E00066E573E08DEC96E00E94EC108091470556
:1032F000882309F463C280913D0590913E05892B96
:10330000B1F40E94350C60E080E00E94400C6DED4D
:1033100073E08DE597E00E947F0D61E084E00E94FC
:10332000400C81E090E090933E0580933D058091B4
:103330003D0590913E050197B9F40E942D08F82EA5
:10334000882391F095E48913F4C28091C506909189
:10335000C606099708F0EAC282E090E090933E0525
:1033600080933D050E94350C80913D0590913E056E
:103370000297B1F40E94350C60E082E00E94400C9C
:103380006EEE73E08DE597E00E947F0D61E084E0D2
:103390000E94400C83E090E090933E0580933D05B1
:1033A00080913D0590913E050397B9F40E942D0848
:1033B000F82E882391F0E5E48E13DFC26BEB76E004
:1033C00081EC96E00E941610882309F4C9C284E0BB
:1033D00090E090933E0580933D0580913D0590914E
:1033E0003E050497B1F40E94350C60E081E00E9434
:1033F000400C69EC73E08DE597E00E947F0D61E081
:1034000087E00E94400C89E090E090933E05809315
:103410003D0580913D0590913E05099771F50E940B
:103420002D08F82E882349F1F5E48F13CAC282E0F3
:1034300090E090933E0580933D058091B906909170
:10344000BA06892B09F4B0C268ED73E08091B50625
:103450009091B6060E942D24892B09F0A5C266E53D
:1034600073E085EB96E00E94EC1085E090E090938D
:103470003E0580933D050E94350C80913D0590915D
:103480003E05059709F01AC160E080E00E94400CFB
:103490006BEF73E08DE597E00E947F0D61E081E0C6
:1034A0000E94400C0E943A1F1AA619A61CA61BA631
:1034B0001EA61DA62AE432E140E050E00E94012150
:1034C000DC01CB018450974FAF4FBF4F4AE0B801AA
:1034D0000E94921FB801C1010E94EC106CE074E0E0
:1034E000C8010E9416114DA55EA569A57AA5C8015F
:1034F0000E946E10811103C0C8010E949A1041E021
:1035000050E06EE074E0C8010E946E10811103C0AB
:10351000C8010E949A10B801CE01CD960E940D11EB
:10352000C8010E942711C1010E94271160E174E0C7
:10353000C8010E94161123964EAD5FAD23976DAD65
:103540007EADC8010E946E10811103C0C8010E94A7
:103550009A104D815E8169817A818DE597E00E94A4
:103560005002C8010E9427112396EEACFFAC2397AE
:10357000E114F10409F03CC21BAAE090C506F090EA
:10358000C606E114F10409F049C219A64AE050E068
:10359000BE016D5C7F4FC8010E943D244AE050E0AF
:1035A000B101CE010B960E943D2425961FAE1EAEA2
:1035B0002597CE018D5B9F4F0E94130D25968EADF2
:1035C0009FAD259724E1289F6001299FD00C1124ED
:1035D00078012B96EEADFFAD2B97CE0EDF1EF701D7
:1035E00091907F015601AE0EBF1EC5010E94EB20D7
:1035F000981621F0692DC5010E94F32027968EAD03
:103600009FAD27978E159F0551F72596EEACFFAC21
:1036100025979FEFE91AF90A2596FFAEEEAE25979A
:1036200090E080E00E94EB20E81629F06E2D90E0FB
:1036300080E00E94F3202596FFAC259781E090E082
:103640000E94EB20F81629F06F2D81E090E00E9497
:10365000F32066E573E081EC96E00E94EC1066E5ED
:1036600073E085EB96E00E94EC1066E573E08BEB6F
:1036700096E00E94EC1060EA7FE080E090E00E941B
:10368000930710923E0510923D051092470581E088
:10369000809348050E94350C60E081E00E94400C58
:1036A00063E773E08DE597E00E947F0D61E086E0BF
:1036B0000E94400CCE01CD960E94271180913D05BD
:1036C00090913E05069711F50E94350C60E083E06D
:1036D0000E94400C68E174E08DE597E00E947F0D48
:1036E00061E086E00E94400C63E274E08DE597E0C3
:1036F0000E947F0D68EB7BE080E090E00E949307E2
:1037000084E090E090933E0580933D0580913D05D7
:1037100090913E05079721F560E084E00E94400CFF
:1037200067E274E08DE597E00E947F0D61E085E03F
:103730000E94400C60E374E08DE597E00E947F0DED
:1037400068EB7BE080E090E00E94930710923E05DA
:1037500010923D0566E573E081EC96E00E94EC1066
:1037600080913D0590913E05089741F50E94350CEA
:1037700060E087E00E94400C68E374E08DE597E02C
:103780000E947F0D61E084E00E94400C6BE374E0D6
:103790008DE597E00E947F0D68EB7BE080E090E094
:1037A0000E94930782E090E090933E0580933D0550
:1037B00066E573E08BEB96E00E94EC108091450586
:1037C0008823D9F181E080933F0560E085E00E9485
:1037D000400C65E474E08DE597E00E947F0D61E0A8
:1037E00084E00E94400C6CE474E08DE597E00E9458
:1037F0007F0D61E08CE00E9417041092450596E071
:10380000E92EF12C40E550E060E070E088E592E0C0
:103810000E94CA0464EF71E080E090E00E94930788
:103820008AE00E94490464EF71E080E090E00E9429
:103830009307E1E0EE1AF10829F780913F05811125
:1038400001C10E94C507AB01BC0180914B0590915D
:103850004C05A0914D05B0914E0588519C4FAF4F3E
:10386000BF4F84179507A607B70780F40E94C507C6
:1038700060934B0570934C0580934D0590934E05D6
:1038800066E574E08BE795E00E947F0D0E9453038C
:10389000D3CA8093440533CC6F2D8DE597E00E9409
:1038A00049026FED76E0C8010E940D116F2DC8012D
:1038B0000E94AC10BC018FED96E00E94F610C8018A
:1038C0000E9427112ACC0E94350C60E081E00E9402
:1038D000400C63E773E08DE597E00E947F0D61E0A7
:1038E00086E00E94400C81E0809348056CCC81E02A
:1038F00080934105109240050E94350CF1CC682F51
:103900008DE597E00E9449026DEC76E0C8010E94C7
:103910000D116F2DC8010E94AC10BC018DEC96E01A
:103920000E94F610C8010E942711E0CC87E090E0C9
:1039300015CD682F8DE597E00E94490261EC76E095
:10394000C8010E940D116F2DC8010E94AC10BC016E
:1039500081EC96E00E94F610C8010E94271104CD68
:1039600088E090E090933E0580933D0566E573E026
:103970008BEB96E00E94EC1030CD682F8DE597E040
:103980000E9449026BEB76E0C8010E940D116F2D79
:10399000C8010E94AC10BC018BEB96E00E94F610AF
:1039A000C8010E94271119CD86E090E090933E0552
:1039B00080933D0566E573E085EB96E00E94EC1090
:1039C0005CCD682F8DE597E00E94490265EB76E0BB
:1039D000C8010E940D116F2DC8010E94AC10BC01DE
:1039E00085EB96E00E94F610C8010E94271145CD94
:1039F00029E0E216F10418F039E0E32EF12C6DAD68
:103A00007EADA701CE01C3960E943D24E3E3F0E022
:103A1000EC0FFD1FEE0DFF1D1082AFCD89E0E81603
:103A2000F10418F029E0E22EF12C6091C1067091AA
:103A3000C206A701C1010E943D24F101EE0DFF1D48
:103A40001082A4CD66E573E08BE795E00E947F0DC0
:103A50008BE795E00E94AE02181619060CF016CFFF
:103A60008BE795E00E948C028154843108F00ECFE0
:103A7000E82F880FFF0B8827EF5BF24E8F4F0C94D7
:103A80001622551D5A1D5C1D5F1D611D641D721D92
:103A9000811D661D751D831D8A1D911DF31D461C0C
:103AA000461C461C461C461CFD1D61E08EE00E9423
:103AB0001704ECCE60E0FACF61E08FE0F8CF60E071
:103AC000FCCF61E080E1F3CF60E0FCCF61E08EE00D
:103AD0000E94170461E08FE00E94170461E080E11A
:103AE0000E94170461E081E1E2CF60E08EE00E9475
:103AF000170460E08FE00E94170460E080E10E94FC
:103B0000170460E0F0CF10924A05109249050E9418
:103B1000E60DBCCE81E090E090934A058093490584
:103B2000F6CF80912902882309F450C00E94350CF9
:103B300060E080E00E94400C65E08DE597E00E9427
:103B4000EE0C60E081E00E94400C67EB72E08DE5D6
:103B500097E00E947F0D61E082E00E94400C63E0EC
:103B60008DE597E00E94EE0C61E083E00E94400C3E
:103B700064E08DE597E00E94EE0C61E084E00E9435
:103B8000400C68E574E08DE597E00E947F0D61E0F0
:103B90008CE00E94400C64E08DE597E00E94EE0C02
:103BA000F12CE12CC7010E94AA016FE070E080E0D7
:103BB00090E00E9493079FEFE91AF90AE5EBEE16F1
:103BC000F10481F761E082E20E9417040E94C507B8
:103BD00060934F0570935005809351059093520563
:103BE0001092290253CE80912902811102C00E94B5
:103BF000810D81E08093290249CE80917B00877FEF
:103C000080937B0080E480937C0080917A008064C4
:103C100080937A0080917A0086FDFCCF80917800B5
:103C200060917900762F682F77FF02C06F5F7F4F1A
:103C300075956795072E000C880B990B0E94CE1F77
:103C40006B017C014B015C01AC019B010E940522D0
:103C500061E674E0811126C026013701E89477F807
:103C60002FEF3FEF4FE75FE7C301B2010E9405224C
:103C700081110CC02FEF3FEF4FE75FE7C301B201A7
:103C80000E94C71F65E674E0181664F02FEF3FEF3F
:103C90004FE75FE4C701B6010E94002218163CF40A
:103CA00069E674E08BE795E00E94240DEFCD2FEFDD
:103CB0003FEF4FE75FECC701B6010E94C71F87FDCA
:103CC000EFCF20E030E0A901C701B6010E94C71F75
:103CD00087FF0BC06DE28BE795E00E944902460129
:103CE0005701B7FAB094B7F8B0942AE037ED43EA39
:103CF0005BE3C501B4010E9465214B015C010E9498
:103D0000D1216B017C010E94CC1F9B01AC01C5013C
:103D1000B4010E9464214B015C012AE0B701A601B5
:103D20008BE795E00E94330D6EE28BE795E00E94F1
:103D3000490220E030E040E251E4C501B4010E94B4
:103D40002D204B015C010E94D1216B01F12CE12C53
:103D50002AE0B701A6018BE795E00E94330DC70169
:103D6000B6010E94CC1F9B01AC01C501B4010E94A9
:103D7000642120E030E040E251E40E942D200E94C6
:103D8000D121AB0170E060E02AE08BE795E00E9472
:103D9000330D7CCD85EB96E00E9427118BEB96E0EE
:103DA0000E94271181EC96E00E94271187EC96E093
:103DB0000E9427118DEC96E00E94271183ED96E07A
:103DC0000E94271189ED96E00E9427118FED96E061
:103DD0000E94271185EE96E00C9427118F929F92F6
:103DE000AF92BF92CF92DF92EF92FF92CF93DF9389
:103DF000EC01688179818A819B816115710581055A
:103E0000910521F464E279ED8BE597E02DE133EF44
:103E100041E050E00E94012149015A019B01AC019F
:103E2000A7EAB1E40E9420216B017C01ACEEB4EF63
:103E3000A50194010E942E21C60ED71EE81EF91E70
:103E4000F7FE06C081E0C81AD108E10880E8F80A48
:103E5000C882D982EA82FB82C701B6019F77DF91CF
:103E6000CF91FF90EF90DF90CF90BF90AF909F9059
:103E70008F9008958F929F92AF92BF92CF92DF92D0
:103E8000EF92FF926091430270914402809145024B
:103E900090914602611571058105910521F464E256
:103EA00079ED8BE597E02DE133EF41E050E00E94A2
:103EB000012149015A019B01AC01A7EAB1E40E942A
:103EC00020216B017C01ACEEB4EFA50194010E94AE
:103ED0002E21C60ED71EE81EF91EF7FE06C081E091
:103EE000C81AD108E10880E8F80AC0924302D092CB
:103EF0004402E0924502F0924602C701B6019F7764
:103F0000FF90EF90DF90CF90BF90AF909F908F90F9
:103F10000895609343027093440280934502909306
:103F200046020895BB274A3031F4992322F4BDE2BA
:103F3000909581959F4F0C949E1FBB27FB015527A1
:103F4000AA27880F991FAA1FA41710F0A41B8395F6
:103F50005051B9F7A05DAA3308F0A95DA19300976D
:103F600079F7B111B1931192CB010C94B71FDC0119
:103F7000FC01672F71917723E1F7329704C07C91A0
:103F80006D9370836291AE17BF07C8F308950E94C6
:103F9000092008F481E00895E89409C097FB3EF4F5
:103FA00090958095709561957F4F8F4F9F4F992386
:103FB000A9F0F92F96E9BB279395F6958795779504
:103FC0006795B795F111F8CFFAF4BB0F11F460FFC4
:103FD0001BC06F5F7F4F8F4F9F4F16C0882311F01C
:103FE00096E911C0772321F09EE8872F762F05C030
:103FF000662371F096E8862F70E060E02AF09A95CB
:10400000660F771F881FDAF7880F9695879597F9BF
:104010000895990F0008550FAA0BE0E8FEEF161659
:104020001706E807F907C0F012161306E407F507AC
:1040300098F0621B730B840B950B39F40A2661F020
:10404000232B242B252B21F408950A2609F4A140C3
:10405000A6958FEF811D811D08950E9440200C942C
:10406000B1200E94A32038F00E94AA2020F09523BE
:1040700011F00C949A200C94A02011240C94E520AB
:104080000E94C22070F3959FC1F3950F50E0551F19
:10409000629FF001729FBB27F00DB11D639FAA279D
:1040A000F00DB11DAA1F649F6627B00DA11D661FEC
:1040B000829F2227B00DA11D621F739FB00DA11D0D
:1040C000621F839FA00D611D221F749F3327A00DC7
:1040D000611D231F849F600D211D822F762F6A2F63
:1040E00011249F5750409AF0F1F088234AF0EE0FC8
:1040F000FF1FBB1F661F771F881F91505040A9F7F5
:104100009E3F510580F00C949A200C94E5205F3F6F
:10411000E4F3983ED4F3869577956795B795F79530
:10412000E7959F5FC1F7FE2B880F911D96958795A8
:1041300097F9089597F99F6780E870E060E0089527
:104140009FEF80EC089500240A94161617061806AF
:104150000906089500240A9412161306140605068B
:104160000895092E0394000C11F4882352F0BB0F1C
:1041700040F4BF2B11F460FF04C06F5F7F4F8F4F7F
:104180009F4F089557FD9058440F551F59F05F3FBA
:1041900071F04795880F97FB991F61F09F3F79F069
:1041A00087950895121613061406551FF2CF4695EB
:1041B000F1DF08C0161617061806991FF1CF86956D
:1041C0007105610508940895E894BB276627772751
:1041D000CB0197F90895F999FECF92BD81BDF89A68
:1041E000992780B50895262FF999FECF1FBA92BD61
:1041F00081BD20BD0FB6F894FA9AF99A0FBE0196C8
:104200000895052E97FB1EF400940E94182157FD77
:1042100007D00E94332107FC03D04EF40C941821E0
:1042200050954095309521953F4F4F4F5F4F0895E2
:1042300090958095709561957F4F8F4F9F4F089512
:104240000E945521A59F900DB49F900DA49F800DB5
:10425000911D11240895B7FF0C9420210E94202164
:10426000821B930B0895A1E21A2EAA1BBB1BFD0112
:104270000DC0AA1FBB1FEE1FFF1FA217B307E40745
:10428000F50720F0A21BB30BE40BF50B661F771F9D
:10429000881F991F1A9469F760957095809590957D
:1042A0009B01AC01BD01CF010895A29FB001B39F56
:1042B000C001A39F700D811D1124911DB29F700D2F
:1042C000811D1124911D08955058BB27AA270E94D3
:1042D0007C210C94B1200E94A32038F00E94AA20D7
:1042E00020F039F49F3F19F426F40C94A0200EF42A
:1042F000E095E7FB0C949A20E92F0E94C22058F326
:10430000BA17620773078407950720F079F4A6F5BA
:104310000C94E4200EF4E0950B2EBA2FA02D0B0187
:10432000B90190010C01CA01A0011124FF27591BFA
:1043300099F0593F50F4503E68F11A16F040A22F00
:10434000232F342F4427585FF3CF46953795279571
:10435000A795F0405395C9F77EF41F16BA0B620B70
:10436000730B840BBAF09150A1F0FF0FBB1F661FB7
:10437000771F881FC2F70EC0BA0F621F731F841FFA
:1043800048F4879577956795B795F7959E3F08F020
:10439000B0CF9395880F08F09927EE0F97958795E2
:1043A00008950E94CA2088F09F5798F0B92F992746
:1043B000B751B0F0E1F0660F771F881F991F1AF010
:1043C000BA95C9F714C0B13091F00E94E420B1E071
:1043D00008950C94E420672F782F8827B85F39F070
:1043E000B93FCCF3869577956795B395D9F73EF4A9
:1043F00090958095709561957F4F8F4F9F4F089551
:104400000E94092008F48FEF08950E940920880B6C
:10441000990B0895991B79E004C0991F961708F02D
:10442000961B881F7A95C9F780950895EE0FFF1F98
:10443000881F8BBF0790F691E02D19940F931F935F
:10444000CF93DF938230910510F482E090E0E09109
:104450006B07F0916C0730E020E0B0E0A0E030970F
:1044600099F42115310509F44AC0281B390B243071
:104470003105D8F58A819B816115710589F1FB01B0
:1044800093838283FE0111C0408151810281138197
:1044900048175907E0F04817590799F4109761F049
:1044A00012960C93129713961C933296CF01DF91BC
:1044B000CF911F910F91089500936B0710936C0794
:1044C000F4CF2115310551F04217530738F0A901F7
:1044D000DB019A01BD01DF01F801C1CFEF01F9CF86
:1044E00090936C0780936B07CDCFFE01E20FF31F13
:1044F000819391932250310939832883D7CF20911A
:10450000690730916A07232B41F4209149023091C9
:104510004A0230936A07209369072091470230913D
:1045200048022115310541F42DB73EB740914B02A9
:1045300050914C02241B350BE0916907F0916A07FA
:10454000E217F307A0F42E1B3F0B2817390778F06A
:10455000AC014E5F5F4F2417350748F04E0F5F1FC9
:1045600050936A0740936907819391939FCFF0E03E
:10457000E0E09CCFCF93DF930097E9F0FC01329706
:1045800013821282A0916B07B0916C07ED0130E0AD
:1045900020E01097A1F420813181820F931F209198
:1045A000690730916A072817390709F061C0F0934D
:1045B0006A07E0936907DF91CF910895EA01CE176A
:1045C000DF07E8F54A815B819E0141155105B1F78E
:1045D000E901FB83EA8349915991C40FD51FEC1778
:1045E000FD0761F4808191810296840F951FE90196
:1045F00099838883828193819B838A83F0E0E0E0C2
:1046000012968D919C9113970097B9F52D913C913D
:104610001197CD010296820F931F20916907309167
:104620006A072817390739F6309751F510926C0749
:1046300010926B07B0936A07A0936907BCCFD3832E
:10464000C28340815181840F951FC817D90761F437
:104650004E5F5F4F88819981480F591F5183408376
:104660008A819B81938382832115310509F0B0CF24
:10467000F0936C07E0936B079ECFFD01DC01C0CF88
:1046800013821282D7CF4F925F926F927F928F9256
:104690009F92AF92BF92CF92DF92EF92FF920F93D1
:1046A0001F93CF93DF938C01009799F4CB01DF9197
:1046B000CF911F910F91FF90EF90DF90CF90BF901F
:1046C000AF909F908F907F906F905F904F900C94E1
:1046D0001E22FC01E60FF71F9C0122503109E21750
:1046E000F30708F4AEC0D901CD91DC911197C6173C
:1046F000D70720F1C530D10578F0CE010497861791
:10470000970750F0C61BD70B2297C193D1936D9397
:104710007C93CF010E94BA22C801DF91CF911F91F3
:104720000F91FF90EF90DF90CF90BF90AF909F9050
:104730008F907F906F905F904F9008955B01AC1ABF
:10474000BD0A4C018C0E9D1EA0916B07B0916C07A9
:10475000512C412CF12CE12C109731F580916907F7
:1047600090916A078815990509F05CC046165706AE
:1047700008F058C08091470290914802009741F498
:104780008DB79EB740914B0250914C02841B950B04
:10479000E817F90708F055C0F0936A07E093690736
:1047A000F90171836083B8CF8D919C911197129616
:1047B0006C90129713967C901397A815B90559F52C
:1047C0006C0142E0C40ED11CCA14DB0420F1AC0120
:1047D0004A195B09DA011296159780F0628273829A
:1047E00051834083D9016D937C93E114F10471F0FE
:1047F000D7011396FC93EE9312978ECF22968C0FCF
:104800009D1FF90191838083F301EFCFF0936C0733
:10481000E0936B0781CF4816590608F42C017D01FF
:10482000D3019ACFCB010E941E227C01009749F050
:10483000AE01B8010E942424C8010E94BA22870157
:104840006BCF10E000E068CFFB01DC0102C00190FB
:104850000D9241505040D8F70895FB01DC018D9135
:10486000019080190110D9F3990B0895FB01DC0127
:1048700001900D920020E1F70895FB01DC01415009
:10488000504048F001900D920020C9F701C01D92E0
:1048900041505040E0F7089511E0C4E7D1E000E056
:1048A00006C0802FFE010E9416222196011DC537E9
:0C48B000D10780E00807A9F7F894FFCFBB
:1048BC00000E0A1F11111F000102161C0800000037
:1048CC00000A0A00110E00000E01011F1B1B1F0025
:1048DC000E11111F1B1B1F000101FF060708090207
:1048EC000304053132332D3435362D3738392D2A22
:1048FC003023450100000000006D078000000040DF
:10490C000014005400170019001B001D00010001C9
:10491C000000000000000001000100000000000089
:10492C000001000100010000000000010000000077
:10493C0000E60250027D023303AE028C02A002009C
:10494C00000000EB0ABE0A020C940AB70AA40A95EE
:10495C000A000000006A074504140400000000EE81
:10496C000C5002020C010C26436F6E74726F6C506B
:10497C006F72746F6E260043657272616E646F00A5
:10498C00436F727269656E646F2068616369612040
:10499C00006C6120697A71756965726461202020F0
:1049AC0020004C61206D756573747261206C6C65B0
:1049BC00676F00616C204C41422032202020202067
:1049CC0020202000506F6E6572204D7565737472D7
:1049DC006120656E006C612062616E6461204C41E7
:1049EC004231202020006C6120646572656368612F
:1049FC00202020202000616C204C414220312020BE
:104A0C00202020202020006C612062616E646120D7
:104A1C004C414232202020004249454E56454E49D9
:104A2C00444F004944454E544946494341444F5232
:104A3C003A003030303000434F4E54524153454EC3
:104A4C00413A004552524F520041434345534F2087
:104A5C0044454E454741444F005349535420424C22
:104A6C004F51554541444F00415649534520414C07
:104A7C0020474552454E544500434C41564520472E
:104A8C004552454E54453A0030313036004E55456E
:104A9C00564120434F4E54524153454E4100434FD3
:104AAC004E4649524D4143494F4E0052454749539A
:104ABC0054524F20455849544F534F0023002A005D
:104ACC0053552049443A2000494E434F52524543D6
:104ADC005441005858580045584345444520380027
:104AEC0044494749544F53004E4F00434F494E439E
:104AFC004944454E0041434345534F005045524DA8
:104B0C00495449444F00590041627269656E646FA3
:0E4B1C00006E616E00696E66006F76660000C6
:00000001FF
